{
  "_format": "hh-sol-artifact-1",
  "contractName": "BorrowYourCar",
  "sourceName": "contracts/BorrowYourCar.sol",
  "abi": [
    {
      "inputs": [],
      "stateMutability": "nonpayable",
      "type": "constructor"
    },
    {
      "inputs": [
        {
          "internalType": "address",
          "name": "sender",
          "type": "address"
        },
        {
          "internalType": "uint256",
          "name": "tokenId",
          "type": "uint256"
        },
        {
          "internalType": "address",
          "name": "owner",
          "type": "address"
        }
      ],
      "name": "ERC721IncorrectOwner",
      "type": "error"
    },
    {
      "inputs": [
        {
          "internalType": "address",
          "name": "operator",
          "type": "address"
        },
        {
          "internalType": "uint256",
          "name": "tokenId",
          "type": "uint256"
        }
      ],
      "name": "ERC721InsufficientApproval",
      "type": "error"
    },
    {
      "inputs": [
        {
          "internalType": "address",
          "name": "approver",
          "type": "address"
        }
      ],
      "name": "ERC721InvalidApprover",
      "type": "error"
    },
    {
      "inputs": [
        {
          "internalType": "address",
          "name": "operator",
          "type": "address"
        }
      ],
      "name": "ERC721InvalidOperator",
      "type": "error"
    },
    {
      "inputs": [
        {
          "internalType": "address",
          "name": "owner",
          "type": "address"
        }
      ],
      "name": "ERC721InvalidOwner",
      "type": "error"
    },
    {
      "inputs": [
        {
          "internalType": "address",
          "name": "receiver",
          "type": "address"
        }
      ],
      "name": "ERC721InvalidReceiver",
      "type": "error"
    },
    {
      "inputs": [
        {
          "internalType": "address",
          "name": "sender",
          "type": "address"
        }
      ],
      "name": "ERC721InvalidSender",
      "type": "error"
    },
    {
      "inputs": [
        {
          "internalType": "uint256",
          "name": "tokenId",
          "type": "uint256"
        }
      ],
      "name": "ERC721NonexistentToken",
      "type": "error"
    },
    {
      "anonymous": false,
      "inputs": [
        {
          "indexed": true,
          "internalType": "address",
          "name": "owner",
          "type": "address"
        },
        {
          "indexed": true,
          "internalType": "address",
          "name": "approved",
          "type": "address"
        },
        {
          "indexed": true,
          "internalType": "uint256",
          "name": "tokenId",
          "type": "uint256"
        }
      ],
      "name": "Approval",
      "type": "event"
    },
    {
      "anonymous": false,
      "inputs": [
        {
          "indexed": true,
          "internalType": "address",
          "name": "owner",
          "type": "address"
        },
        {
          "indexed": true,
          "internalType": "address",
          "name": "operator",
          "type": "address"
        },
        {
          "indexed": false,
          "internalType": "bool",
          "name": "approved",
          "type": "bool"
        }
      ],
      "name": "ApprovalForAll",
      "type": "event"
    },
    {
      "anonymous": false,
      "inputs": [
        {
          "indexed": false,
          "internalType": "uint256",
          "name": "carTokenId",
          "type": "uint256"
        },
        {
          "indexed": false,
          "internalType": "address",
          "name": "owner",
          "type": "address"
        },
        {
          "indexed": false,
          "internalType": "address",
          "name": "borrower",
          "type": "address"
        },
        {
          "indexed": false,
          "internalType": "uint256",
          "name": "duration",
          "type": "uint256"
        },
        {
          "indexed": false,
          "internalType": "string",
          "name": "message",
          "type": "string"
        }
      ],
      "name": "CarBorrowed",
      "type": "event"
    },
    {
      "anonymous": false,
      "inputs": [
        {
          "indexed": false,
          "internalType": "address",
          "name": "owner",
          "type": "address"
        },
        {
          "indexed": false,
          "internalType": "address",
          "name": "borrower",
          "type": "address"
        },
        {
          "indexed": false,
          "internalType": "string",
          "name": "message",
          "type": "string"
        }
      ],
      "name": "CarInfo",
      "type": "event"
    },
    {
      "anonymous": false,
      "inputs": [
        {
          "indexed": false,
          "internalType": "uint256[]",
          "name": "list",
          "type": "uint256[]"
        }
      ],
      "name": "CarList",
      "type": "event"
    },
    {
      "anonymous": false,
      "inputs": [
        {
          "indexed": false,
          "internalType": "uint256[]",
          "name": "list",
          "type": "uint256[]"
        }
      ],
      "name": "NotBorrowedList",
      "type": "event"
    },
    {
      "anonymous": false,
      "inputs": [
        {
          "indexed": true,
          "internalType": "address",
          "name": "from",
          "type": "address"
        },
        {
          "indexed": true,
          "internalType": "address",
          "name": "to",
          "type": "address"
        },
        {
          "indexed": true,
          "internalType": "uint256",
          "name": "tokenId",
          "type": "uint256"
        }
      ],
      "name": "Transfer",
      "type": "event"
    },
    {
      "anonymous": false,
      "inputs": [
        {
          "indexed": false,
          "internalType": "uint256",
          "name": "carTokenId",
          "type": "uint256"
        },
        {
          "indexed": false,
          "internalType": "address",
          "name": "owner",
          "type": "address"
        }
      ],
      "name": "UpdateCar",
      "type": "event"
    },
    {
      "inputs": [
        {
          "internalType": "uint256",
          "name": "carTokenId",
          "type": "uint256"
        },
        {
          "internalType": "uint256",
          "name": "duration",
          "type": "uint256"
        }
      ],
      "name": "BorrowCar",
      "outputs": [],
      "stateMutability": "nonpayable",
      "type": "function"
    },
    {
      "inputs": [
        {
          "internalType": "uint256",
          "name": "carTokenId",
          "type": "uint256"
        }
      ],
      "name": "InfoCheck",
      "outputs": [],
      "stateMutability": "nonpayable",
      "type": "function"
    },
    {
      "inputs": [],
      "name": "NotBorrowedcarlistCheck",
      "outputs": [],
      "stateMutability": "nonpayable",
      "type": "function"
    },
    {
      "inputs": [
        {
          "internalType": "address",
          "name": "to",
          "type": "address"
        },
        {
          "internalType": "uint256",
          "name": "tokenId",
          "type": "uint256"
        }
      ],
      "name": "approve",
      "outputs": [],
      "stateMutability": "nonpayable",
      "type": "function"
    },
    {
      "inputs": [
        {
          "internalType": "address",
          "name": "owner",
          "type": "address"
        }
      ],
      "name": "balanceOf",
      "outputs": [
        {
          "internalType": "uint256",
          "name": "",
          "type": "uint256"
        }
      ],
      "stateMutability": "view",
      "type": "function"
    },
    {
      "inputs": [],
      "name": "carlistCheck",
      "outputs": [],
      "stateMutability": "nonpayable",
      "type": "function"
    },
    {
      "inputs": [
        {
          "internalType": "uint256",
          "name": "",
          "type": "uint256"
        }
      ],
      "name": "cars",
      "outputs": [
        {
          "internalType": "address",
          "name": "owner",
          "type": "address"
        },
        {
          "internalType": "address",
          "name": "borrower",
          "type": "address"
        },
        {
          "internalType": "uint256",
          "name": "borrowUntil",
          "type": "uint256"
        }
      ],
      "stateMutability": "view",
      "type": "function"
    },
    {
      "inputs": [
        {
          "internalType": "uint256",
          "name": "tokenId",
          "type": "uint256"
        }
      ],
      "name": "getApproved",
      "outputs": [
        {
          "internalType": "address",
          "name": "",
          "type": "address"
        }
      ],
      "stateMutability": "view",
      "type": "function"
    },
    {
      "inputs": [
        {
          "internalType": "address",
          "name": "owner",
          "type": "address"
        },
        {
          "internalType": "address",
          "name": "operator",
          "type": "address"
        }
      ],
      "name": "isApprovedForAll",
      "outputs": [
        {
          "internalType": "bool",
          "name": "",
          "type": "bool"
        }
      ],
      "stateMutability": "view",
      "type": "function"
    },
    {
      "inputs": [
        {
          "internalType": "address",
          "name": "owner",
          "type": "address"
        }
      ],
      "name": "mintCarNFT",
      "outputs": [],
      "stateMutability": "nonpayable",
      "type": "function"
    },
    {
      "inputs": [],
      "name": "name",
      "outputs": [
        {
          "internalType": "string",
          "name": "",
          "type": "string"
        }
      ],
      "stateMutability": "view",
      "type": "function"
    },
    {
      "inputs": [
        {
          "internalType": "uint256",
          "name": "tokenId",
          "type": "uint256"
        }
      ],
      "name": "ownerOf",
      "outputs": [
        {
          "internalType": "address",
          "name": "",
          "type": "address"
        }
      ],
      "stateMutability": "view",
      "type": "function"
    },
    {
      "inputs": [
        {
          "internalType": "uint256",
          "name": "carTokenId",
          "type": "uint256"
        }
      ],
      "name": "restoreCarInfo",
      "outputs": [],
      "stateMutability": "nonpayable",
      "type": "function"
    },
    {
      "inputs": [
        {
          "internalType": "address",
          "name": "from",
          "type": "address"
        },
        {
          "internalType": "address",
          "name": "to",
          "type": "address"
        },
        {
          "internalType": "uint256",
          "name": "tokenId",
          "type": "uint256"
        }
      ],
      "name": "safeTransferFrom",
      "outputs": [],
      "stateMutability": "nonpayable",
      "type": "function"
    },
    {
      "inputs": [
        {
          "internalType": "address",
          "name": "from",
          "type": "address"
        },
        {
          "internalType": "address",
          "name": "to",
          "type": "address"
        },
        {
          "internalType": "uint256",
          "name": "tokenId",
          "type": "uint256"
        },
        {
          "internalType": "bytes",
          "name": "data",
          "type": "bytes"
        }
      ],
      "name": "safeTransferFrom",
      "outputs": [],
      "stateMutability": "nonpayable",
      "type": "function"
    },
    {
      "inputs": [
        {
          "internalType": "address",
          "name": "operator",
          "type": "address"
        },
        {
          "internalType": "bool",
          "name": "approved",
          "type": "bool"
        }
      ],
      "name": "setApprovalForAll",
      "outputs": [],
      "stateMutability": "nonpayable",
      "type": "function"
    },
    {
      "inputs": [
        {
          "internalType": "bytes4",
          "name": "interfaceId",
          "type": "bytes4"
        }
      ],
      "name": "supportsInterface",
      "outputs": [
        {
          "internalType": "bool",
          "name": "",
          "type": "bool"
        }
      ],
      "stateMutability": "view",
      "type": "function"
    },
    {
      "inputs": [],
      "name": "symbol",
      "outputs": [
        {
          "internalType": "string",
          "name": "",
          "type": "string"
        }
      ],
      "stateMutability": "view",
      "type": "function"
    },
    {
      "inputs": [
        {
          "internalType": "uint256",
          "name": "tokenId",
          "type": "uint256"
        }
      ],
      "name": "tokenURI",
      "outputs": [
        {
          "internalType": "string",
          "name": "",
          "type": "string"
        }
      ],
      "stateMutability": "view",
      "type": "function"
    },
    {
      "inputs": [
        {
          "internalType": "address",
          "name": "from",
          "type": "address"
        },
        {
          "internalType": "address",
          "name": "to",
          "type": "address"
        },
        {
          "internalType": "uint256",
          "name": "tokenId",
          "type": "uint256"
        }
      ],
      "name": "transferFrom",
      "outputs": [],
      "stateMutability": "nonpayable",
      "type": "function"
    }
  ],
  "bytecode": "0x60806040523480156200001157600080fd5b506040518060400160405280600f81526020017f436172426f72726f7753797374656d00000000000000000000000000000000008152506040518060400160405280600781526020017f436172556e69740000000000000000000000000000000000000000000000000081525081600090816200008f91906200032c565b508060019081620000a191906200032c565b505050600060078190555062000413565b600081519050919050565b7f4e487b7100000000000000000000000000000000000000000000000000000000600052604160045260246000fd5b7f4e487b7100000000000000000000000000000000000000000000000000000000600052602260045260246000fd5b600060028204905060018216806200013457607f821691505b6020821081036200014a5762000149620000ec565b5b50919050565b60008190508160005260206000209050919050565b60006020601f8301049050919050565b600082821b905092915050565b600060088302620001b47fffffffffffffffffffffffffffffffffffffffffffffffffffffffffffffffff8262000175565b620001c0868362000175565b95508019841693508086168417925050509392505050565b6000819050919050565b6000819050919050565b60006200020d620002076200020184620001d8565b620001e2565b620001d8565b9050919050565b6000819050919050565b6200022983620001ec565b62000241620002388262000214565b84845462000182565b825550505050565b600090565b6200025862000249565b620002658184846200021e565b505050565b5b818110156200028d57620002816000826200024e565b6001810190506200026b565b5050565b601f821115620002dc57620002a68162000150565b620002b18462000165565b81016020851015620002c1578190505b620002d9620002d08562000165565b8301826200026a565b50505b505050565b600082821c905092915050565b60006200030160001984600802620002e1565b1980831691505092915050565b60006200031c8383620002ee565b9150826002028217905092915050565b6200033782620000b2565b67ffffffffffffffff811115620003535762000352620000bd565b5b6200035f82546200011b565b6200036c82828562000291565b600060209050601f831160018114620003a457600084156200038f578287015190505b6200039b85826200030e565b8655506200040b565b601f198416620003b48662000150565b60005b82811015620003de57848901518255600182019150602085019450602081019050620003b7565b86831015620003fe5784890151620003fa601f891682620002ee565b8355505b6001600288020188555050505b505050505050565b612dfc80620004236000396000f3fe608060405234801561001057600080fd5b506004361061012c5760003560e01c806395d89b41116100ad578063b88d4fde11610071578063b88d4fde14610305578063c87b56dd14610321578063cf90abbc14610351578063e985e9c51461036d578063f7746e361461039d5761012c565b806395d89b41146102775780639df3280214610295578063a22cb465146102b1578063ae8212d6146102cd578063af4bdb69146102e95761012c565b80633de207a8116100f45780633de207a8146101e757806342842e0e146101f15780636352211e1461020d57806370a082311461023d5780638966d7311461026d5761012c565b806301ffc9a71461013157806306fdde0314610161578063081812fc1461017f578063095ea7b3146101af57806323b872dd146101cb575b600080fd5b61014b6004803603810190610146919061221f565b6103cf565b6040516101589190612267565b60405180910390f35b6101696104b1565b6040516101769190612312565b60405180910390f35b6101996004803603810190610194919061236a565b610543565b6040516101a691906123d8565b60405180910390f35b6101c960048036038101906101c4919061241f565b61055f565b005b6101e560048036038101906101e0919061245f565b610575565b005b6101ef610677565b005b61020b6004803603810190610206919061245f565b6107d1565b005b6102276004803603810190610222919061236a565b6107f1565b60405161023491906123d8565b60405180910390f35b610257600480360381019061025291906124b2565b610803565b60405161026491906124ee565b60405180910390f35b6102756108bd565b005b61027f610aad565b60405161028c9190612312565b60405180910390f35b6102af60048036038101906102aa919061236a565b610b3f565b005b6102cb60048036038101906102c69190612535565b610d59565b005b6102e760048036038101906102e2919061236a565b610d6f565b005b61030360048036038101906102fe91906124b2565b610de4565b005b61031f600480360381019061031a91906126aa565b610f0b565b005b61033b6004803603810190610336919061236a565b610f28565b6040516103489190612312565b60405180910390f35b61036b6004803603810190610366919061272d565b610f91565b005b6103876004803603810190610382919061276d565b611233565b6040516103949190612267565b60405180910390f35b6103b760048036038101906103b2919061236a565b6112c7565b6040516103c6939291906127ad565b60405180910390f35b60007f80ac58cd000000000000000000000000000000000000000000000000000000007bffffffffffffffffffffffffffffffffffffffffffffffffffffffff1916827bffffffffffffffffffffffffffffffffffffffffffffffffffffffff1916148061049a57507f5b5e139f000000000000000000000000000000000000000000000000000000007bffffffffffffffffffffffffffffffffffffffffffffffffffffffff1916827bffffffffffffffffffffffffffffffffffffffffffffffffffffffff1916145b806104aa57506104a982611331565b5b9050919050565b6060600080546104c090612813565b80601f01602080910402602001604051908101604052809291908181526020018280546104ec90612813565b80156105395780601f1061050e57610100808354040283529160200191610539565b820191906000526020600020905b81548152906001019060200180831161051c57829003601f168201915b5050505050905090565b600061054e8261139b565b5061055882611423565b9050919050565b610571828261056c611460565b611468565b5050565b600073ffffffffffffffffffffffffffffffffffffffff168273ffffffffffffffffffffffffffffffffffffffff16036105e75760006040517f64a0ae920000000000000000000000000000000000000000000000000000000081526004016105de91906123d8565b60405180910390fd5b60006105fb83836105f6611460565b61147a565b90508373ffffffffffffffffffffffffffffffffffffffff168173ffffffffffffffffffffffffffffffffffffffff1614610671578382826040517f64283d7b00000000000000000000000000000000000000000000000000000000815260040161066893929190612844565b60405180910390fd5b50505050565b6000600a67ffffffffffffffff8111156106945761069361257f565b5b6040519080825280602002602001820160405280156106c25781602001602082028036833780820191505090505b5090506000805b60075481101561078a576006600082815260200190815260200160002060000160009054906101000a900473ffffffffffffffffffffffffffffffffffffffff1673ffffffffffffffffffffffffffffffffffffffff163373ffffffffffffffffffffffffffffffffffffffff16036107775760018161074991906128aa565b83838151811061075c5761075b6128de565b5b60200260200101818152505081806107739061290d565b9250505b80806107829061290d565b9150506106c9565b5061079482611694565b91507f100637a54a3da9601f520d4fbbe74798c226a5660b1bcb28aafbc865523df5ab826040516107c59190612a13565b60405180910390a15050565b6107ec83838360405180602001604052806000815250610f0b565b505050565b60006107fc8261139b565b9050919050565b60008073ffffffffffffffffffffffffffffffffffffffff168273ffffffffffffffffffffffffffffffffffffffff16036108765760006040517f89c62b6400000000000000000000000000000000000000000000000000000000815260040161086d91906123d8565b60405180910390fd5b600360008373ffffffffffffffffffffffffffffffffffffffff1673ffffffffffffffffffffffffffffffffffffffff168152602001908152602001600020549050919050565b6000600a67ffffffffffffffff8111156108da576108d961257f565b5b6040519080825280602002602001820160405280156109085781602001602082028036833780820191505090505b5090506000805b600754811015610a6657426006600083815260200190815260200160002060020154116109405761093f81610d6f565b5b6006600082815260200190815260200160002060000160009054906101000a900473ffffffffffffffffffffffffffffffffffffffff1673ffffffffffffffffffffffffffffffffffffffff163373ffffffffffffffffffffffffffffffffffffffff16148015610a135750600073ffffffffffffffffffffffffffffffffffffffff166006600083815260200190815260200160002060010160009054906101000a900473ffffffffffffffffffffffffffffffffffffffff1673ffffffffffffffffffffffffffffffffffffffff16145b15610a5357600181610a2591906128aa565b838381518110610a3857610a376128de565b5b6020026020010181815250508180610a4f9061290d565b9250505b8080610a5e9061290d565b91505061090f565b50610a7082611694565b91507fb14e1123bb800c640b7899d06932cb17f3cd50cd7e738bedf0f5fa0b0ea2c6a382604051610aa19190612a13565b60405180910390a15050565b606060018054610abc90612813565b80601f0160208091040260200160405190810160405280929190818152602001828054610ae890612813565b8015610b355780601f10610b0a57610100808354040283529160200191610b35565b820191906000526020600020905b815481529060010190602001808311610b1857829003601f168201915b5050505050905090565b600754811115610b84576040517f08c379a0000000000000000000000000000000000000000000000000000000008152600401610b7b90612a81565b60405180910390fd5b60008060006040518060400160405280601581526020017f5468652063617220697320617661696c61626c65210000000000000000000000815250905060006040518060400160405280601481526020017f5468652063617220697320626f72726f7765642100000000000000000000000081525090508480610c0690612aa1565b95505042600660008781526020019081526020016000206002015411610c3057610c2f85610d6f565b5b6006600086815260200190815260200160002060000160009054906101000a900473ffffffffffffffffffffffffffffffffffffffff1693506006600086815260200190815260200160002060010160009054906101000a900473ffffffffffffffffffffffffffffffffffffffff169250600073ffffffffffffffffffffffffffffffffffffffff168373ffffffffffffffffffffffffffffffffffffffff1603610d16577f65b4f86671ccbc137b289c9d0f15253af4b57c51bf867193bcd38dabe8a9126a848484604051610d0993929190612aca565b60405180910390a1610d52565b7f65b4f86671ccbc137b289c9d0f15253af4b57c51bf867193bcd38dabe8a9126a848483604051610d4993929190612aca565b60405180910390a15b5050505050565b610d6b610d64611460565b838361179b565b5050565b60006006600083815260200190815260200160002060010160006101000a81548173ffffffffffffffffffffffffffffffffffffffff021916908373ffffffffffffffffffffffffffffffffffffffff1602179055506000600660008381526020019081526020016000206002018190555050565b60006001600754610df591906128aa565b9050610e01828261190a565b60076000815480929190610e149061290d565b9190505550600060066000600184610e2c9190612b08565b81526020019081526020016000209050828160000160006101000a81548173ffffffffffffffffffffffffffffffffffffffff021916908373ffffffffffffffffffffffffffffffffffffffff16021790555060008160010160006101000a81548173ffffffffffffffffffffffffffffffffffffffff021916908373ffffffffffffffffffffffffffffffffffffffff160217905550600081600201819055507f093a1aae0099140774794bcc43105596664b3e9856018cee167794e7c33cb46a8284604051610efe929190612b3c565b60405180910390a1505050565b610f16848484610575565b610f2284848484611928565b50505050565b6060610f338261139b565b506000610f3e611adf565b90506000815111610f5e5760405180602001604052806000815250610f89565b80610f6884611af6565b604051602001610f79929190612ba1565b6040516020818303038152906040525b915050919050565b600754821115610fd6576040517f08c379a0000000000000000000000000000000000000000000000000000000008152600401610fcd90612a81565b60405180910390fd5b8180610fe190612aa1565b9250504260066000848152602001908152602001600020600201541161100b5761100a82610d6f565b5b600073ffffffffffffffffffffffffffffffffffffffff166006600084815260200190815260200160002060010160009054906101000a900473ffffffffffffffffffffffffffffffffffffffff1673ffffffffffffffffffffffffffffffffffffffff16146110b0576040517f08c379a00000000000000000000000000000000000000000000000000000000081526004016110a790612c11565b60405180910390fd5b336006600084815260200190815260200160002060010160006101000a81548173ffffffffffffffffffffffffffffffffffffffff021916908373ffffffffffffffffffffffffffffffffffffffff16021790555060006006600084815260200190815260200160002060010160009054906101000a900473ffffffffffffffffffffffffffffffffffffffff16905060006006600085815260200190815260200160002060000160009054906101000a900473ffffffffffffffffffffffffffffffffffffffff169050600042905060006040518060400160405280601481526020017f426f72726f77205375636365737366756c6c7921000000000000000000000000815250905084826111c691906128aa565b60066000888152602001908152602001600020600201819055507f6aac32d91c8cd4bbbcb35ae618144d56ce5e0d1f47163ef1c134f2d5b074bcae60018761120e91906128aa565b84868885604051611223959493929190612c31565b60405180910390a1505050505050565b6000600560008473ffffffffffffffffffffffffffffffffffffffff1673ffffffffffffffffffffffffffffffffffffffff16815260200190815260200160002060008373ffffffffffffffffffffffffffffffffffffffff1673ffffffffffffffffffffffffffffffffffffffff16815260200190815260200160002060009054906101000a900460ff16905092915050565b60066020528060005260406000206000915090508060000160009054906101000a900473ffffffffffffffffffffffffffffffffffffffff16908060010160009054906101000a900473ffffffffffffffffffffffffffffffffffffffff16908060020154905083565b60007f01ffc9a7000000000000000000000000000000000000000000000000000000007bffffffffffffffffffffffffffffffffffffffffffffffffffffffff1916827bffffffffffffffffffffffffffffffffffffffffffffffffffffffff1916149050919050565b6000806113a783611bc4565b9050600073ffffffffffffffffffffffffffffffffffffffff168173ffffffffffffffffffffffffffffffffffffffff160361141a57826040517f7e27328900000000000000000000000000000000000000000000000000000000815260040161141191906124ee565b60405180910390fd5b80915050919050565b60006004600083815260200190815260200160002060009054906101000a900473ffffffffffffffffffffffffffffffffffffffff169050919050565b600033905090565b6114758383836001611c01565b505050565b60008061148684611bc4565b9050600073ffffffffffffffffffffffffffffffffffffffff168373ffffffffffffffffffffffffffffffffffffffff16146114c8576114c7818486611dc6565b5b600073ffffffffffffffffffffffffffffffffffffffff168173ffffffffffffffffffffffffffffffffffffffff16146115595761150a600085600080611c01565b6001600360008373ffffffffffffffffffffffffffffffffffffffff1673ffffffffffffffffffffffffffffffffffffffff168152602001908152602001600020600082825403925050819055505b600073ffffffffffffffffffffffffffffffffffffffff168573ffffffffffffffffffffffffffffffffffffffff16146115dc576001600360008773ffffffffffffffffffffffffffffffffffffffff1673ffffffffffffffffffffffffffffffffffffffff168152602001908152602001600020600082825401925050819055505b846002600086815260200190815260200160002060006101000a81548173ffffffffffffffffffffffffffffffffffffffff021916908373ffffffffffffffffffffffffffffffffffffffff160217905550838573ffffffffffffffffffffffffffffffffffffffff168273ffffffffffffffffffffffffffffffffffffffff167fddf252ad1be2c89b69c2b068fc378daa952ba7f163c4a11628f55a4df523b3ef60405160405180910390a4809150509392505050565b60606000825190505b6000811180156116d357506000836001836116b89190612b08565b815181106116c9576116c86128de565b5b6020026020010151145b156116eb5780806116e390612aa1565b91505061169d565b60008167ffffffffffffffff8111156117075761170661257f565b5b6040519080825280602002602001820160405280156117355781602001602082028036833780820191505090505b50905060005b8281101561179057848181518110611756576117556128de565b5b6020026020010151828281518110611771576117706128de565b5b60200260200101818152505080806117889061290d565b91505061173b565b508092505050919050565b600073ffffffffffffffffffffffffffffffffffffffff168273ffffffffffffffffffffffffffffffffffffffff160361180c57816040517f5b08ba1800000000000000000000000000000000000000000000000000000000815260040161180391906123d8565b60405180910390fd5b80600560008573ffffffffffffffffffffffffffffffffffffffff1673ffffffffffffffffffffffffffffffffffffffff16815260200190815260200160002060008473ffffffffffffffffffffffffffffffffffffffff1673ffffffffffffffffffffffffffffffffffffffff16815260200190815260200160002060006101000a81548160ff0219169083151502179055508173ffffffffffffffffffffffffffffffffffffffff168373ffffffffffffffffffffffffffffffffffffffff167f17307eab39ab6107e8899845ad3d59bd9653f200f220920489ca2b5937696c31836040516118fd9190612267565b60405180910390a3505050565b611924828260405180602001604052806000815250611e8a565b5050565b60008373ffffffffffffffffffffffffffffffffffffffff163b1115611ad9578273ffffffffffffffffffffffffffffffffffffffff1663150b7a0261196c611460565b8685856040518563ffffffff1660e01b815260040161198e9493929190612ce0565b6020604051808303816000875af19250505080156119ca57506040513d601f19601f820116820180604052508101906119c79190612d41565b60015b611a4e573d80600081146119fa576040519150601f19603f3d011682016040523d82523d6000602084013e6119ff565b606091505b506000815103611a4657836040517f64a0ae92000000000000000000000000000000000000000000000000000000008152600401611a3d91906123d8565b60405180910390fd5b805181602001fd5b63150b7a0260e01b7bffffffffffffffffffffffffffffffffffffffffffffffffffffffff1916817bffffffffffffffffffffffffffffffffffffffffffffffffffffffff191614611ad757836040517f64a0ae92000000000000000000000000000000000000000000000000000000008152600401611ace91906123d8565b60405180910390fd5b505b50505050565b606060405180602001604052806000815250905090565b606060006001611b0584611ea6565b01905060008167ffffffffffffffff811115611b2457611b2361257f565b5b6040519080825280601f01601f191660200182016040528015611b565781602001600182028036833780820191505090505b509050600082602001820190505b600115611bb9578080600190039150507f3031323334353637383961626364656600000000000000000000000000000000600a86061a8153600a8581611bad57611bac612d6e565b5b04945060008503611b64575b819350505050919050565b60006002600083815260200190815260200160002060009054906101000a900473ffffffffffffffffffffffffffffffffffffffff169050919050565b8080611c3a5750600073ffffffffffffffffffffffffffffffffffffffff168273ffffffffffffffffffffffffffffffffffffffff1614155b15611d6e576000611c4a8461139b565b9050600073ffffffffffffffffffffffffffffffffffffffff168373ffffffffffffffffffffffffffffffffffffffff1614158015611cb557508273ffffffffffffffffffffffffffffffffffffffff168173ffffffffffffffffffffffffffffffffffffffff1614155b8015611cc85750611cc68184611233565b155b15611d0a57826040517fa9fbf51f000000000000000000000000000000000000000000000000000000008152600401611d0191906123d8565b60405180910390fd5b8115611d6c57838573ffffffffffffffffffffffffffffffffffffffff168273ffffffffffffffffffffffffffffffffffffffff167f8c5be1e5ebec7d5bd14f71427d1e84f3dd0314c0f7b2291e5b200ac8c7c3b92560405160405180910390a45b505b836004600085815260200190815260200160002060006101000a81548173ffffffffffffffffffffffffffffffffffffffff021916908373ffffffffffffffffffffffffffffffffffffffff16021790555050505050565b611dd1838383611ff9565b611e8557600073ffffffffffffffffffffffffffffffffffffffff168373ffffffffffffffffffffffffffffffffffffffff1603611e4657806040517f7e273289000000000000000000000000000000000000000000000000000000008152600401611e3d91906124ee565b60405180910390fd5b81816040517f177e802f000000000000000000000000000000000000000000000000000000008152600401611e7c929190612d9d565b60405180910390fd5b505050565b611e9483836120ba565b611ea16000848484611928565b505050565b600080600090507a184f03e93ff9f4daa797ed6e38ed64bf6a1f0100000000000000008310611f04577a184f03e93ff9f4daa797ed6e38ed64bf6a1f0100000000000000008381611efa57611ef9612d6e565b5b0492506040810190505b6d04ee2d6d415b85acef81000000008310611f41576d04ee2d6d415b85acef81000000008381611f3757611f36612d6e565b5b0492506020810190505b662386f26fc100008310611f7057662386f26fc100008381611f6657611f65612d6e565b5b0492506010810190505b6305f5e1008310611f99576305f5e1008381611f8f57611f8e612d6e565b5b0492506008810190505b6127108310611fbe576127108381611fb457611fb3612d6e565b5b0492506004810190505b60648310611fe15760648381611fd757611fd6612d6e565b5b0492506002810190505b600a8310611ff0576001810190505b80915050919050565b60008073ffffffffffffffffffffffffffffffffffffffff168373ffffffffffffffffffffffffffffffffffffffff16141580156120b157508273ffffffffffffffffffffffffffffffffffffffff168473ffffffffffffffffffffffffffffffffffffffff16148061207257506120718484611233565b5b806120b057508273ffffffffffffffffffffffffffffffffffffffff1661209883611423565b73ffffffffffffffffffffffffffffffffffffffff16145b5b90509392505050565b600073ffffffffffffffffffffffffffffffffffffffff168273ffffffffffffffffffffffffffffffffffffffff160361212c5760006040517f64a0ae9200000000000000000000000000000000000000000000000000000000815260040161212391906123d8565b60405180910390fd5b600061213a8383600061147a565b9050600073ffffffffffffffffffffffffffffffffffffffff168173ffffffffffffffffffffffffffffffffffffffff16146121ae5760006040517f73c6ac6e0000000000000000000000000000000000000000000000000000000081526004016121a591906123d8565b60405180910390fd5b505050565b6000604051905090565b600080fd5b600080fd5b60007fffffffff0000000000000000000000000000000000000000000000000000000082169050919050565b6121fc816121c7565b811461220757600080fd5b50565b600081359050612219816121f3565b92915050565b600060208284031215612235576122346121bd565b5b60006122438482850161220a565b91505092915050565b60008115159050919050565b6122618161224c565b82525050565b600060208201905061227c6000830184612258565b92915050565b600081519050919050565b600082825260208201905092915050565b60005b838110156122bc5780820151818401526020810190506122a1565b60008484015250505050565b6000601f19601f8301169050919050565b60006122e482612282565b6122ee818561228d565b93506122fe81856020860161229e565b612307816122c8565b840191505092915050565b6000602082019050818103600083015261232c81846122d9565b905092915050565b6000819050919050565b61234781612334565b811461235257600080fd5b50565b6000813590506123648161233e565b92915050565b6000602082840312156123805761237f6121bd565b5b600061238e84828501612355565b91505092915050565b600073ffffffffffffffffffffffffffffffffffffffff82169050919050565b60006123c282612397565b9050919050565b6123d2816123b7565b82525050565b60006020820190506123ed60008301846123c9565b92915050565b6123fc816123b7565b811461240757600080fd5b50565b600081359050612419816123f3565b92915050565b60008060408385031215612436576124356121bd565b5b60006124448582860161240a565b925050602061245585828601612355565b9150509250929050565b600080600060608486031215612478576124776121bd565b5b60006124868682870161240a565b93505060206124978682870161240a565b92505060406124a886828701612355565b9150509250925092565b6000602082840312156124c8576124c76121bd565b5b60006124d68482850161240a565b91505092915050565b6124e881612334565b82525050565b600060208201905061250360008301846124df565b92915050565b6125128161224c565b811461251d57600080fd5b50565b60008135905061252f81612509565b92915050565b6000806040838503121561254c5761254b6121bd565b5b600061255a8582860161240a565b925050602061256b85828601612520565b9150509250929050565b600080fd5b600080fd5b7f4e487b7100000000000000000000000000000000000000000000000000000000600052604160045260246000fd5b6125b7826122c8565b810181811067ffffffffffffffff821117156125d6576125d561257f565b5b80604052505050565b60006125e96121b3565b90506125f582826125ae565b919050565b600067ffffffffffffffff8211156126155761261461257f565b5b61261e826122c8565b9050602081019050919050565b82818337600083830152505050565b600061264d612648846125fa565b6125df565b9050828152602081018484840111156126695761266861257a565b5b61267484828561262b565b509392505050565b600082601f83011261269157612690612575565b5b81356126a184826020860161263a565b91505092915050565b600080600080608085870312156126c4576126c36121bd565b5b60006126d28782880161240a565b94505060206126e38782880161240a565b93505060406126f487828801612355565b925050606085013567ffffffffffffffff811115612715576127146121c2565b5b6127218782880161267c565b91505092959194509250565b60008060408385031215612744576127436121bd565b5b600061275285828601612355565b925050602061276385828601612355565b9150509250929050565b60008060408385031215612784576127836121bd565b5b60006127928582860161240a565b92505060206127a38582860161240a565b9150509250929050565b60006060820190506127c260008301866123c9565b6127cf60208301856123c9565b6127dc60408301846124df565b949350505050565b7f4e487b7100000000000000000000000000000000000000000000000000000000600052602260045260246000fd5b6000600282049050600182168061282b57607f821691505b60208210810361283e5761283d6127e4565b5b50919050565b600060608201905061285960008301866123c9565b61286660208301856124df565b61287360408301846123c9565b949350505050565b7f4e487b7100000000000000000000000000000000000000000000000000000000600052601160045260246000fd5b60006128b582612334565b91506128c083612334565b92508282019050808211156128d8576128d761287b565b5b92915050565b7f4e487b7100000000000000000000000000000000000000000000000000000000600052603260045260246000fd5b600061291882612334565b91507fffffffffffffffffffffffffffffffffffffffffffffffffffffffffffffffff820361294a5761294961287b565b5b600182019050919050565b600081519050919050565b600082825260208201905092915050565b6000819050602082019050919050565b61298a81612334565b82525050565b600061299c8383612981565b60208301905092915050565b6000602082019050919050565b60006129c082612955565b6129ca8185612960565b93506129d583612971565b8060005b83811015612a065781516129ed8882612990565b97506129f8836129a8565b9250506001810190506129d9565b5085935050505092915050565b60006020820190508181036000830152612a2d81846129b5565b905092915050565b7f54686520436172496420697320496e76616c6964210000000000000000000000600082015250565b6000612a6b60158361228d565b9150612a7682612a35565b602082019050919050565b60006020820190508181036000830152612a9a81612a5e565b9050919050565b6000612aac82612334565b915060008203612abf57612abe61287b565b5b600182039050919050565b6000606082019050612adf60008301866123c9565b612aec60208301856123c9565b8181036040830152612afe81846122d9565b9050949350505050565b6000612b1382612334565b9150612b1e83612334565b9250828203905081811115612b3657612b3561287b565b5b92915050565b6000604082019050612b5160008301856124df565b612b5e60208301846123c9565b9392505050565b600081905092915050565b6000612b7b82612282565b612b858185612b65565b9350612b9581856020860161229e565b80840191505092915050565b6000612bad8285612b70565b9150612bb98284612b70565b91508190509392505050565b7f546869732063617220686173206265656e20626f72726f776564210000000000600082015250565b6000612bfb601b8361228d565b9150612c0682612bc5565b602082019050919050565b60006020820190508181036000830152612c2a81612bee565b9050919050565b600060a082019050612c4660008301886124df565b612c5360208301876123c9565b612c6060408301866123c9565b612c6d60608301856124df565b8181036080830152612c7f81846122d9565b90509695505050505050565b600081519050919050565b600082825260208201905092915050565b6000612cb282612c8b565b612cbc8185612c96565b9350612ccc81856020860161229e565b612cd5816122c8565b840191505092915050565b6000608082019050612cf560008301876123c9565b612d0260208301866123c9565b612d0f60408301856124df565b8181036060830152612d218184612ca7565b905095945050505050565b600081519050612d3b816121f3565b92915050565b600060208284031215612d5757612d566121bd565b5b6000612d6584828501612d2c565b91505092915050565b7f4e487b7100000000000000000000000000000000000000000000000000000000600052601260045260246000fd5b6000604082019050612db260008301856123c9565b612dbf60208301846124df565b939250505056fea26469706673582212203b802de3ecb9844c9d9550604d898b6d56f68eba3f6766f8f63e639a047f9fa564736f6c63430008140033",
  "linkReferences": {},
  "deployedLinkReferences": {}
}